{
  "address": "0x5FbDB2315678afecb367f032d93F642f64180aa3",
  "abi": [
    {
      "anonymous": false,
      "inputs": [
        {
          "indexed": true,
          "internalType": "address",
          "name": "previousOwner",
          "type": "address"
        },
        {
          "indexed": true,
          "internalType": "address",
          "name": "newOwner",
          "type": "address"
        }
      ],
      "name": "OwnershipTransferred",
      "type": "event"
    },
    {
      "anonymous": false,
      "inputs": [
        {
          "indexed": false,
          "internalType": "uint256",
          "name": "proposalId",
          "type": "uint256"
        },
        {
          "indexed": false,
          "internalType": "string",
          "name": "description",
          "type": "string"
        }
      ],
      "name": "ProposalRegistered",
      "type": "event"
    },
    {
      "anonymous": false,
      "inputs": [
        {
          "indexed": false,
          "internalType": "address",
          "name": "voter",
          "type": "address"
        },
        {
          "indexed": false,
          "internalType": "uint256",
          "name": "proposalId",
          "type": "uint256"
        }
      ],
      "name": "Voted",
      "type": "event"
    },
    {
      "anonymous": false,
      "inputs": [
        {
          "indexed": false,
          "internalType": "address",
          "name": "voterAddress",
          "type": "address"
        }
      ],
      "name": "VoterRegistered",
      "type": "event"
    },
    {
      "anonymous": false,
      "inputs": [
        {
          "indexed": false,
          "internalType": "enum Voting.WorkflowStatus",
          "name": "previousStatus",
          "type": "uint8"
        },
        {
          "indexed": false,
          "internalType": "enum Voting.WorkflowStatus",
          "name": "newStatus",
          "type": "uint8"
        }
      ],
      "name": "WorkflowStatusChange",
      "type": "event"
    },
    {
      "inputs": [
        {
          "internalType": "string",
          "name": "_desc",
          "type": "string"
        }
      ],
      "name": "addProposal",
      "outputs": [],
      "stateMutability": "nonpayable",
      "type": "function"
    },
    {
      "inputs": [
        {
          "internalType": "address",
          "name": "_addr",
          "type": "address"
        }
      ],
      "name": "addVoter",
      "outputs": [],
      "stateMutability": "nonpayable",
      "type": "function"
    },
    {
      "inputs": [],
      "name": "endProposalsRegistering",
      "outputs": [],
      "stateMutability": "nonpayable",
      "type": "function"
    },
    {
      "inputs": [],
      "name": "endVotingSession",
      "outputs": [],
      "stateMutability": "nonpayable",
      "type": "function"
    },
    {
      "inputs": [
        {
          "internalType": "uint256",
          "name": "_id",
          "type": "uint256"
        }
      ],
      "name": "getOneProposal",
      "outputs": [
        {
          "components": [
            {
              "internalType": "string",
              "name": "description",
              "type": "string"
            },
            {
              "internalType": "uint256",
              "name": "voteCount",
              "type": "uint256"
            }
          ],
          "internalType": "struct Voting.Proposal",
          "name": "",
          "type": "tuple"
        }
      ],
      "stateMutability": "view",
      "type": "function"
    },
    {
      "inputs": [
        {
          "internalType": "address",
          "name": "_addr",
          "type": "address"
        }
      ],
      "name": "getVoter",
      "outputs": [
        {
          "components": [
            {
              "internalType": "bool",
              "name": "isRegistered",
              "type": "bool"
            },
            {
              "internalType": "bool",
              "name": "hasVoted",
              "type": "bool"
            },
            {
              "internalType": "uint256",
              "name": "votedProposalId",
              "type": "uint256"
            }
          ],
          "internalType": "struct Voting.Voter",
          "name": "",
          "type": "tuple"
        }
      ],
      "stateMutability": "view",
      "type": "function"
    },
    {
      "inputs": [],
      "name": "owner",
      "outputs": [
        {
          "internalType": "address",
          "name": "",
          "type": "address"
        }
      ],
      "stateMutability": "view",
      "type": "function"
    },
    {
      "inputs": [],
      "name": "renounceOwnership",
      "outputs": [],
      "stateMutability": "nonpayable",
      "type": "function"
    },
    {
      "inputs": [
        {
          "internalType": "uint256",
          "name": "_id",
          "type": "uint256"
        }
      ],
      "name": "setVote",
      "outputs": [],
      "stateMutability": "nonpayable",
      "type": "function"
    },
    {
      "inputs": [],
      "name": "startProposalsRegistering",
      "outputs": [],
      "stateMutability": "nonpayable",
      "type": "function"
    },
    {
      "inputs": [],
      "name": "startVotingSession",
      "outputs": [],
      "stateMutability": "nonpayable",
      "type": "function"
    },
    {
      "inputs": [],
      "name": "tallyVotes",
      "outputs": [],
      "stateMutability": "nonpayable",
      "type": "function"
    },
    {
      "inputs": [
        {
          "internalType": "address",
          "name": "newOwner",
          "type": "address"
        }
      ],
      "name": "transferOwnership",
      "outputs": [],
      "stateMutability": "nonpayable",
      "type": "function"
    },
    {
      "inputs": [],
      "name": "winningProposalID",
      "outputs": [
        {
          "internalType": "uint256",
          "name": "",
          "type": "uint256"
        }
      ],
      "stateMutability": "view",
      "type": "function"
    },
    {
      "inputs": [],
      "name": "workflowStatus",
      "outputs": [
        {
          "internalType": "enum Voting.WorkflowStatus",
          "name": "",
          "type": "uint8"
        }
      ],
      "stateMutability": "view",
      "type": "function"
    }
  ],
  "transactionHash": "0x3ddda11b723ff39e4fc655a745d0ecb22f715c28a38988e38a124cca141f8de6",
  "args": [],
  "numDeployments": 1,
  "solcInputHash": "7f9ce9e0ed330f0708b36a243285a07e",
  "bytecode": "0x60806040523480156200001157600080fd5b5062000032620000266200003860201b60201c565b6200004060201b60201c565b62000104565b600033905090565b60008060009054906101000a900473ffffffffffffffffffffffffffffffffffffffff169050816000806101000a81548173ffffffffffffffffffffffffffffffffffffffff021916908373ffffffffffffffffffffffffffffffffffffffff1602179055508173ffffffffffffffffffffffffffffffffffffffff168173ffffffffffffffffffffffffffffffffffffffff167f8be0079c531659141344cd1fd0a4f28419497f9722a3daafe3b4186f6b6457e060405160405180910390a35050565b61253f80620001146000396000f3fe608060405234801561001057600080fd5b50600436106100f55760003560e01c8063a7bfab1611610097578063d4f50f9811610066578063d4f50f98146101ee578063ee74c6781461021e578063f2fde38b14610228578063f4ab9adf14610244576100f5565b8063a7bfab16146101b2578063bdc01431146101bc578063c7038a4e146101da578063c88af42f146101e4576100f5565b8063715018a6116100d3578063715018a61461013c5780638da5cb5b14610146578063a1edffa214610164578063a2788cce14610182576100f5565b8063230796ae146100fa5780632fdae3c514610116578063378a217814610132575b600080fd5b610114600480360381019061010f919061149d565b610260565b005b610130600480360381019061012b919061152f565b61055b565b005b61013a61082a565b005b610144610997565b005b61014e6109ab565b60405161015b91906115bd565b60405180910390f35b61016c6109d4565b604051610179919061164f565b60405180910390f35b61019c6004803603810190610197919061149d565b6109e7565b6040516101a99190611746565b60405180910390f35b6101ba610b4e565b005b6101c4610c34565b6040516101d19190611777565b60405180910390f35b6101e2610c3a565b005b6101ec610db5565b005b610208600480360381019061020391906117be565b610e9a565b6040516102159190611848565b60405180910390f35b610226610fc2565b005b610242600480360381019061023d91906117be565b6110a8565b005b61025e600480360381019061025991906117be565b61112b565b005b600460003373ffffffffffffffffffffffffffffffffffffffff1673ffffffffffffffffffffffffffffffffffffffff16815260200190815260200160002060000160009054906101000a900460ff166102ef576040517f08c379a00000000000000000000000000000000000000000000000000000000081526004016102e6906118c0565b60405180910390fd5b60036005811115610303576103026115d8565b5b600260009054906101000a900460ff166005811115610325576103246115d8565b5b14610365576040517f08c379a000000000000000000000000000000000000000000000000000000000815260040161035c90611952565b60405180910390fd5b60011515600460003373ffffffffffffffffffffffffffffffffffffffff1673ffffffffffffffffffffffffffffffffffffffff16815260200190815260200160002060000160019054906101000a900460ff161515036103fb576040517f08c379a00000000000000000000000000000000000000000000000000000000081526004016103f2906119be565b60405180910390fd5b6003805490508110610442576040517f08c379a000000000000000000000000000000000000000000000000000000000815260040161043990611a2a565b60405180910390fd5b80600460003373ffffffffffffffffffffffffffffffffffffffff1673ffffffffffffffffffffffffffffffffffffffff168152602001908152602001600020600101819055506001600460003373ffffffffffffffffffffffffffffffffffffffff1673ffffffffffffffffffffffffffffffffffffffff16815260200190815260200160002060000160016101000a81548160ff021916908315150217905550600381815481106104f8576104f7611a4a565b5b9060005260206000209060020201600101600081548092919061051a90611aa8565b91905055507f4d99b957a2bc29a30ebd96a7be8e68fe50a3c701db28a91436490b7d53870ca43382604051610550929190611af0565b60405180910390a150565b600460003373ffffffffffffffffffffffffffffffffffffffff1673ffffffffffffffffffffffffffffffffffffffff16815260200190815260200160002060000160009054906101000a900460ff166105ea576040517f08c379a00000000000000000000000000000000000000000000000000000000081526004016105e1906118c0565b60405180910390fd5b600160058111156105fe576105fd6115d8565b5b600260009054906101000a900460ff1660058111156106205761061f6115d8565b5b14610660576040517f08c379a000000000000000000000000000000000000000000000000000000000815260040161065790611b65565b60405180910390fd5b60405160200161066f90611bab565b604051602081830303815290604052805190602001208282604051602001610698929190611c07565b60405160208183030381529060405280519060200120036106ee576040517f08c379a00000000000000000000000000000000000000000000000000000000081526004016106e590611c9d565b60405180910390fd5b606460038054905010610736576040517f08c379a000000000000000000000000000000000000000000000000000000000815260040161072d90611d09565b60405180910390fd5b61073e61141e565b82828080601f016020809104026020016040519081016040528093929190818152602001838380828437600081840152601f19601f820116905080830192505050505050508160000181905250600381908060018154018082558091505060019003906000526020600020906002020160009091909190915060008201518160000190816107cc9190611f64565b506020820151816001015550507f7c33c4b6ed18ab3f65fdeb25d41356291f7ec877c0db0af1a821ad5c444b4aeb600160038054905061080c9190612036565b848460405161081d9392919061206a565b60405180910390a1505050565b6108326112d4565b60046005811115610846576108456115d8565b5b600260009054906101000a900460ff166005811115610868576108676115d8565b5b146108a8576040517f08c379a000000000000000000000000000000000000000000000000000000000815260040161089f9061210e565b60405180910390fd5b600080600090505b60038054905081101561092657600382815481106108d1576108d0611a4a565b5b906000526020600020906002020160010154600382815481106108f7576108f6611a4a565b5b9060005260206000209060020201600101541115610913578091505b808061091e90611aa8565b9150506108b0565b50806001819055506005600260006101000a81548160ff02191690836005811115610954576109536115d8565b5b02179055507f0a97a4ee45751e2abf3e4fc8946939630b11b371ea8ae39ccdc3056e98f5cc3f6004600560405161098c92919061212e565b60405180910390a150565b61099f6112d4565b6109a96000611352565b565b60008060009054906101000a900473ffffffffffffffffffffffffffffffffffffffff16905090565b600260009054906101000a900460ff1681565b6109ef61141e565b600460003373ffffffffffffffffffffffffffffffffffffffff1673ffffffffffffffffffffffffffffffffffffffff16815260200190815260200160002060000160009054906101000a900460ff16610a7e576040517f08c379a0000000000000000000000000000000000000000000000000000000008152600401610a75906118c0565b60405180910390fd5b60038281548110610a9257610a91611a4a565b5b9060005260206000209060020201604051806040016040529081600082018054610abb90611d87565b80601f0160208091040260200160405190810160405280929190818152602001828054610ae790611d87565b8015610b345780601f10610b0957610100808354040283529160200191610b34565b820191906000526020600020905b815481529060010190602001808311610b1757829003601f168201915b505050505081526020016001820154815250509050919050565b610b566112d4565b60036005811115610b6a57610b696115d8565b5b600260009054906101000a900460ff166005811115610b8c57610b8b6115d8565b5b14610bcc576040517f08c379a0000000000000000000000000000000000000000000000000000000008152600401610bc390611952565b60405180910390fd5b6004600260006101000a81548160ff02191690836005811115610bf257610bf16115d8565b5b02179055507f0a97a4ee45751e2abf3e4fc8946939630b11b371ea8ae39ccdc3056e98f5cc3f60036004604051610c2a92919061212e565b60405180910390a1565b60015481565b610c426112d4565b60006005811115610c5657610c556115d8565b5b600260009054906101000a900460ff166005811115610c7857610c776115d8565b5b14610cb8576040517f08c379a0000000000000000000000000000000000000000000000000000000008152600401610caf906121c9565b60405180910390fd5b6001600260006101000a81548160ff02191690836005811115610cde57610cdd6115d8565b5b0217905550610ceb61141e565b6040518060400160405280600781526020017f47454e4553495300000000000000000000000000000000000000000000000000815250816000018190525060038190806001815401808255809150506001900390600052602060002090600202016000909190919091506000820151816000019081610d6a9190611f64565b506020820151816001015550507f0a97a4ee45751e2abf3e4fc8946939630b11b371ea8ae39ccdc3056e98f5cc3f60006001604051610daa92919061212e565b60405180910390a150565b610dbd6112d4565b60016005811115610dd157610dd06115d8565b5b600260009054906101000a900460ff166005811115610df357610df26115d8565b5b14610e33576040517f08c379a0000000000000000000000000000000000000000000000000000000008152600401610e2a9061225b565b60405180910390fd5b60028060006101000a81548160ff02191690836005811115610e5857610e576115d8565b5b02179055507f0a97a4ee45751e2abf3e4fc8946939630b11b371ea8ae39ccdc3056e98f5cc3f60016002604051610e9092919061212e565b60405180910390a1565b610ea2611438565b600460003373ffffffffffffffffffffffffffffffffffffffff1673ffffffffffffffffffffffffffffffffffffffff16815260200190815260200160002060000160009054906101000a900460ff16610f31576040517f08c379a0000000000000000000000000000000000000000000000000000000008152600401610f28906118c0565b60405180910390fd5b600460008373ffffffffffffffffffffffffffffffffffffffff1673ffffffffffffffffffffffffffffffffffffffff1681526020019081526020016000206040518060600160405290816000820160009054906101000a900460ff161515151581526020016000820160019054906101000a900460ff161515151581526020016001820154815250509050919050565b610fca6112d4565b60026005811115610fde57610fdd6115d8565b5b600260009054906101000a900460ff16600581111561100057610fff6115d8565b5b14611040576040517f08c379a0000000000000000000000000000000000000000000000000000000008152600401611037906122ed565b60405180910390fd5b6003600260006101000a81548160ff02191690836005811115611066576110656115d8565b5b02179055507f0a97a4ee45751e2abf3e4fc8946939630b11b371ea8ae39ccdc3056e98f5cc3f6002600360405161109e92919061212e565b60405180910390a1565b6110b06112d4565b600073ffffffffffffffffffffffffffffffffffffffff168173ffffffffffffffffffffffffffffffffffffffff160361111f576040517f08c379a00000000000000000000000000000000000000000000000000000000081526004016111169061237f565b60405180910390fd5b61112881611352565b50565b6111336112d4565b60006005811115611147576111466115d8565b5b600260009054906101000a900460ff166005811115611169576111686115d8565b5b146111a9576040517f08c379a00000000000000000000000000000000000000000000000000000000081526004016111a090612411565b60405180910390fd5b60011515600460008373ffffffffffffffffffffffffffffffffffffffff1673ffffffffffffffffffffffffffffffffffffffff16815260200190815260200160002060000160009054906101000a900460ff1615150361123f576040517f08c379a00000000000000000000000000000000000000000000000000000000081526004016112369061247d565b60405180910390fd5b6001600460008373ffffffffffffffffffffffffffffffffffffffff1673ffffffffffffffffffffffffffffffffffffffff16815260200190815260200160002060000160006101000a81548160ff0219169083151502179055507fb6be2187d059cc2a55fe29e0e503b566e1e0f8c8780096e185429350acffd3dd816040516112c991906115bd565b60405180910390a150565b6112dc611416565b73ffffffffffffffffffffffffffffffffffffffff166112fa6109ab565b73ffffffffffffffffffffffffffffffffffffffff1614611350576040517f08c379a0000000000000000000000000000000000000000000000000000000008152600401611347906124e9565b60405180910390fd5b565b60008060009054906101000a900473ffffffffffffffffffffffffffffffffffffffff169050816000806101000a81548173ffffffffffffffffffffffffffffffffffffffff021916908373ffffffffffffffffffffffffffffffffffffffff1602179055508173ffffffffffffffffffffffffffffffffffffffff168173ffffffffffffffffffffffffffffffffffffffff167f8be0079c531659141344cd1fd0a4f28419497f9722a3daafe3b4186f6b6457e060405160405180910390a35050565b600033905090565b604051806040016040528060608152602001600081525090565b6040518060600160405280600015158152602001600015158152602001600081525090565b600080fd5b600080fd5b6000819050919050565b61147a81611467565b811461148557600080fd5b50565b60008135905061149781611471565b92915050565b6000602082840312156114b3576114b261145d565b5b60006114c184828501611488565b91505092915050565b600080fd5b600080fd5b600080fd5b60008083601f8401126114ef576114ee6114ca565b5b8235905067ffffffffffffffff81111561150c5761150b6114cf565b5b602083019150836001820283011115611528576115276114d4565b5b9250929050565b600080602083850312156115465761154561145d565b5b600083013567ffffffffffffffff81111561156457611563611462565b5b611570858286016114d9565b92509250509250929050565b600073ffffffffffffffffffffffffffffffffffffffff82169050919050565b60006115a78261157c565b9050919050565b6115b78161159c565b82525050565b60006020820190506115d260008301846115ae565b92915050565b7f4e487b7100000000000000000000000000000000000000000000000000000000600052602160045260246000fd5b60068110611618576116176115d8565b5b50565b600081905061162982611607565b919050565b60006116398261161b565b9050919050565b6116498161162e565b82525050565b60006020820190506116646000830184611640565b92915050565b600081519050919050565b600082825260208201905092915050565b60005b838110156116a4578082015181840152602081019050611689565b60008484015250505050565b6000601f19601f8301169050919050565b60006116cc8261166a565b6116d68185611675565b93506116e6818560208601611686565b6116ef816116b0565b840191505092915050565b61170381611467565b82525050565b6000604083016000830151848203600086015261172682826116c1565b915050602083015161173b60208601826116fa565b508091505092915050565b600060208201905081810360008301526117608184611709565b905092915050565b61177181611467565b82525050565b600060208201905061178c6000830184611768565b92915050565b61179b8161159c565b81146117a657600080fd5b50565b6000813590506117b881611792565b92915050565b6000602082840312156117d4576117d361145d565b5b60006117e2848285016117a9565b91505092915050565b60008115159050919050565b611800816117eb565b82525050565b60608201600082015161181c60008501826117f7565b50602082015161182f60208501826117f7565b50604082015161184260408501826116fa565b50505050565b600060608201905061185d6000830184611806565b92915050565b600082825260208201905092915050565b7f596f75277265206e6f74206120766f7465720000000000000000000000000000600082015250565b60006118aa601283611863565b91506118b582611874565b602082019050919050565b600060208201905081810360008301526118d98161189d565b9050919050565b7f566f74696e672073657373696f6e20686176656e74207374617274656420796560008201527f7400000000000000000000000000000000000000000000000000000000000000602082015250565b600061193c602183611863565b9150611947826118e0565b604082019050919050565b6000602082019050818103600083015261196b8161192f565b9050919050565b7f596f75206861766520616c726561647920766f74656400000000000000000000600082015250565b60006119a8601683611863565b91506119b382611972565b602082019050919050565b600060208201905081810360008301526119d78161199b565b9050919050565b7f50726f706f73616c206e6f7420666f756e640000000000000000000000000000600082015250565b6000611a14601283611863565b9150611a1f826119de565b602082019050919050565b60006020820190508181036000830152611a4381611a07565b9050919050565b7f4e487b7100000000000000000000000000000000000000000000000000000000600052603260045260246000fd5b7f4e487b7100000000000000000000000000000000000000000000000000000000600052601160045260246000fd5b6000611ab382611467565b91507fffffffffffffffffffffffffffffffffffffffffffffffffffffffffffffffff8203611ae557611ae4611a79565b5b600182019050919050565b6000604082019050611b0560008301856115ae565b611b126020830184611768565b9392505050565b7f50726f706f73616c7320617265206e6f7420616c6c6f77656420796574000000600082015250565b6000611b4f601d83611863565b9150611b5a82611b19565b602082019050919050565b60006020820190508181036000830152611b7e81611b42565b9050919050565b50565b6000611b95600083611863565b9150611ba082611b85565b600082019050919050565b60006020820190508181036000830152611bc481611b88565b9050919050565b82818337600083830152505050565b6000611be68385611863565b9350611bf3838584611bcb565b611bfc836116b0565b840190509392505050565b60006020820190508181036000830152611c22818486611bda565b90509392505050565b7f566f7573206e6520706f7576657a20706173206e65207269656e2070726f706f60008201527f7365720000000000000000000000000000000000000000000000000000000000602082015250565b6000611c87602383611863565b9150611c9282611c2b565b604082019050919050565b60006020820190508181036000830152611cb681611c7a565b9050919050565b7f4d6178696d756d206f662070726f706f73616c73207265616368656400000000600082015250565b6000611cf3601c83611863565b9150611cfe82611cbd565b602082019050919050565b60006020820190508181036000830152611d2281611ce6565b9050919050565b7f4e487b7100000000000000000000000000000000000000000000000000000000600052604160045260246000fd5b7f4e487b7100000000000000000000000000000000000000000000000000000000600052602260045260246000fd5b60006002820490506001821680611d9f57607f821691505b602082108103611db257611db1611d58565b5b50919050565b60008190508160005260206000209050919050565b60006020601f8301049050919050565b600082821b905092915050565b600060088302611e1a7fffffffffffffffffffffffffffffffffffffffffffffffffffffffffffffffff82611ddd565b611e248683611ddd565b95508019841693508086168417925050509392505050565b6000819050919050565b6000611e61611e5c611e5784611467565b611e3c565b611467565b9050919050565b6000819050919050565b611e7b83611e46565b611e8f611e8782611e68565b848454611dea565b825550505050565b600090565b611ea4611e97565b611eaf818484611e72565b505050565b5b81811015611ed357611ec8600082611e9c565b600181019050611eb5565b5050565b601f821115611f1857611ee981611db8565b611ef284611dcd565b81016020851015611f01578190505b611f15611f0d85611dcd565b830182611eb4565b50505b505050565b600082821c905092915050565b6000611f3b60001984600802611f1d565b1980831691505092915050565b6000611f548383611f2a565b9150826002028217905092915050565b611f6d8261166a565b67ffffffffffffffff811115611f8657611f85611d29565b5b611f908254611d87565b611f9b828285611ed7565b600060209050601f831160018114611fce5760008415611fbc578287015190505b611fc68582611f48565b86555061202e565b601f198416611fdc86611db8565b60005b8281101561200457848901518255600182019150602085019450602081019050611fdf565b86831015612021578489015161201d601f891682611f2a565b8355505b6001600288020188555050505b505050505050565b600061204182611467565b915061204c83611467565b925082820390508181111561206457612063611a79565b5b92915050565b600060408201905061207f6000830186611768565b8181036020830152612092818486611bda565b9050949350505050565b7f43757272656e7420737461747573206973206e6f7420766f74696e672073657360008201527f73696f6e20656e64656400000000000000000000000000000000000000000000602082015250565b60006120f8602a83611863565b91506121038261209c565b604082019050919050565b60006020820190508181036000830152612127816120eb565b9050919050565b60006040820190506121436000830185611640565b6121506020830184611640565b9392505050565b7f5265676973746572696e672070726f706f73616c732063616e7420626520737460008201527f6172746564206e6f770000000000000000000000000000000000000000000000602082015250565b60006121b3602983611863565b91506121be82612157565b604082019050919050565b600060208201905081810360008301526121e2816121a6565b9050919050565b7f5265676973746572696e672070726f706f73616c7320686176656e742073746160008201527f7274656420796574000000000000000000000000000000000000000000000000602082015250565b6000612245602883611863565b9150612250826121e9565b604082019050919050565b6000602082019050818103600083015261227481612238565b9050919050565b7f5265676973746572696e672070726f706f73616c73207068617365206973206e60008201527f6f742066696e6973686564000000000000000000000000000000000000000000602082015250565b60006122d7602b83611863565b91506122e28261227b565b604082019050919050565b60006020820190508181036000830152612306816122ca565b9050919050565b7f4f776e61626c653a206e6577206f776e657220697320746865207a65726f206160008201527f6464726573730000000000000000000000000000000000000000000000000000602082015250565b6000612369602683611863565b91506123748261230d565b604082019050919050565b600060208201905081810360008301526123988161235c565b9050919050565b7f566f7465727320726567697374726174696f6e206973206e6f74206f70656e2060008201527f7965740000000000000000000000000000000000000000000000000000000000602082015250565b60006123fb602383611863565b91506124068261239f565b604082019050919050565b6000602082019050818103600083015261242a816123ee565b9050919050565b7f416c726561647920726567697374657265640000000000000000000000000000600082015250565b6000612467601283611863565b915061247282612431565b602082019050919050565b600060208201905081810360008301526124968161245a565b9050919050565b7f4f776e61626c653a2063616c6c6572206973206e6f7420746865206f776e6572600082015250565b60006124d3602083611863565b91506124de8261249d565b602082019050919050565b60006020820190508181036000830152612502816124c6565b905091905056fea2646970667358221220fd91bf0482e2017829d341d2085ae9ca0ecdca37ab9f1071fc8e77641f7fe70564736f6c63430008110033",
  "devdoc": {
    "author": "Victor",
    "details": "All function calls are currently implemented without side effects - a patch has been added to prevent DDos attack",
    "kind": "dev",
    "methods": {
      "getVoter(address)": {
        "details": "OnlyVoters can call this function",
        "params": {
          "_addr": "the adress of the voter that you want to get"
        },
        "returns": {
          "_0": "Voter "
        }
      },
      "owner()": {
        "details": "Returns the address of the current owner."
      },
      "renounceOwnership()": {
        "details": "Leaves the contract without owner. It will not be possible to call `onlyOwner` functions anymore. Can only be called by the current owner. NOTE: Renouncing ownership will leave the contract without an owner, thereby removing any functionality that is only available to the owner."
      },
      "transferOwnership(address)": {
        "details": "Transfers ownership of the contract to a new account (`newOwner`). Can only be called by the current owner."
      }
    },
    "title": "My first voting contract - project 3",
    "version": 1
  },
  "userdoc": {
    "kind": "user",
    "methods": {
      "getVoter(address)": {
        "notice": "return Voter after an adress is given"
      }
    },
    "notice": "You can use this contract to simulate a voting process",
    "version": 1
  },
  "storageLayout": {
    "storage": [
      {
        "astId": 596,
        "contract": "contracts/Voting.sol:Voting",
        "label": "_owner",
        "offset": 0,
        "slot": "0",
        "type": "t_address"
      },
      {
        "astId": 142,
        "contract": "contracts/Voting.sol:Voting",
        "label": "winningProposalID",
        "offset": 0,
        "slot": "1",
        "type": "t_uint256"
      },
      {
        "astId": 164,
        "contract": "contracts/Voting.sol:Voting",
        "label": "workflowStatus",
        "offset": 0,
        "slot": "2",
        "type": "t_enum(WorkflowStatus)161"
      },
      {
        "astId": 168,
        "contract": "contracts/Voting.sol:Voting",
        "label": "proposalsArray",
        "offset": 0,
        "slot": "3",
        "type": "t_array(t_struct(Proposal)154_storage)dyn_storage"
      },
      {
        "astId": 173,
        "contract": "contracts/Voting.sol:Voting",
        "label": "voters",
        "offset": 0,
        "slot": "4",
        "type": "t_mapping(t_address,t_struct(Voter)149_storage)"
      }
    ],
    "types": {
      "t_address": {
        "encoding": "inplace",
        "label": "address",
        "numberOfBytes": "20"
      },
      "t_array(t_struct(Proposal)154_storage)dyn_storage": {
        "base": "t_struct(Proposal)154_storage",
        "encoding": "dynamic_array",
        "label": "struct Voting.Proposal[]",
        "numberOfBytes": "32"
      },
      "t_bool": {
        "encoding": "inplace",
        "label": "bool",
        "numberOfBytes": "1"
      },
      "t_enum(WorkflowStatus)161": {
        "encoding": "inplace",
        "label": "enum Voting.WorkflowStatus",
        "numberOfBytes": "1"
      },
      "t_mapping(t_address,t_struct(Voter)149_storage)": {
        "encoding": "mapping",
        "key": "t_address",
        "label": "mapping(address => struct Voting.Voter)",
        "numberOfBytes": "32",
        "value": "t_struct(Voter)149_storage"
      },
      "t_string_storage": {
        "encoding": "bytes",
        "label": "string",
        "numberOfBytes": "32"
      },
      "t_struct(Proposal)154_storage": {
        "encoding": "inplace",
        "label": "struct Voting.Proposal",
        "members": [
          {
            "astId": 151,
            "contract": "contracts/Voting.sol:Voting",
            "label": "description",
            "offset": 0,
            "slot": "0",
            "type": "t_string_storage"
          },
          {
            "astId": 153,
            "contract": "contracts/Voting.sol:Voting",
            "label": "voteCount",
            "offset": 0,
            "slot": "1",
            "type": "t_uint256"
          }
        ],
        "numberOfBytes": "64"
      },
      "t_struct(Voter)149_storage": {
        "encoding": "inplace",
        "label": "struct Voting.Voter",
        "members": [
          {
            "astId": 144,
            "contract": "contracts/Voting.sol:Voting",
            "label": "isRegistered",
            "offset": 0,
            "slot": "0",
            "type": "t_bool"
          },
          {
            "astId": 146,
            "contract": "contracts/Voting.sol:Voting",
            "label": "hasVoted",
            "offset": 1,
            "slot": "0",
            "type": "t_bool"
          },
          {
            "astId": 148,
            "contract": "contracts/Voting.sol:Voting",
            "label": "votedProposalId",
            "offset": 0,
            "slot": "1",
            "type": "t_uint256"
          }
        ],
        "numberOfBytes": "64"
      },
      "t_uint256": {
        "encoding": "inplace",
        "label": "uint256",
        "numberOfBytes": "32"
      }
    }
  }
}